:020000040000FA
:10D000002869002001D2000015D2000017D20000CC
:10D0100019D2000019D2000019D20000000000004F
:10D0200000000000000000000000000019D2000015
:10D0300019D200000000000019D20000D5EB00005A
:10D0400019D2000019D2000019D20000397A01006B
:10D0500019D200006DFE000019D2000019D20000A4
:10D0600019D2000019D2000019D2000019D2000014
:10D0700019D2000019D2000019D2000019D2000004
:10D0800019D2000019D2000019D2000019D20000F4
:10D0900019D2000071D9000019D2000019D2000085
:10D0A00019D2000019D2000019D2000019D20000D4
:10D0B00019D2000019D2000019D2000019D20000C4
:10D0C00019D2000019D2000019D2000019D20000B4
:10D0D00019D2000019D2000019D2000019D20000A4
:10D0E00019D2000019D20000B101020019D20000CB
:10D0F00019D2000019D2000019D2000019D2000084
:10D1000019D2000019D2000019D2000019D2000073
:10D1100019D200009978010019D2000019D200003C
:10D12000EDFE000019D2000019D20000AFFE000091
:10D1300019D2000019D2000019D2000019D2000043
:10D1400019D2000019D2000019D2000019D2000033
:10D15000000000000000000019D2000019D20000F9
:10D1600019D2000019D200000000000019D20000FE
:10D1700019D2000019D2000019D2000019D2000003
:10D1800019D2000019D2000019D2000019D20000F3
:10D19000AD00010019D2000019D2000019D2000020
:10D1A00019D2000019D2000019D2000019D20000D3
:10D1B00019D2000019D2000019D2000019D20000C3
:10D1C00019D2000019D2000019D2000019D20000B3
:10D1D00019D2000019D2000019D2000019D20000A3
:10D1E00019D2000019D2000019D2000019D2000093
:10D1F00019D2000019D2000019D2000019D2000083
:10D200004EF68850CEF20000016841F470010160D2
:10D2100000F004B8FEE7FEE7FEE7000000F002F8C9
:10D2200000F0B6F80AA090E8000C82448344AAF10A
:10D230000107DA4501D100F0ABF8AFF2090EBAE808
:10D240000F0013F0010F18BFFB1A43F0010318473A
:10D2500088830100A88301000A444FF0000C10F8F5
:10D26000013B13F0070408BF10F8014B1D1108BF64
:10D2700010F8015B641E05D010F8016B641E01F804
:10D28000016BF9D113F0080F1EBF10F8014BAD1C54
:10D290000C1B09D16D1E58BF01F801CBFAD505E072
:10D2A00014F8016B01F8016B6D1EF9D59142D6D3CC
:10D2B000704700000023002400250026103A28BFF4
:10D2C00078C1FBD8520728BF30C148BF0B607047F8
:10D2D0006E290FF0028570290FF06086662916F01E
:10D2E000D085652916F0CD85672916F0CA85612994
:10D2F000AFF3008003681B0A28BF41F08001692951
:10D300000EF07A8764290EF0778775290EF07487FE
:10D310006F290FF0EB8578290FF02C86E9290FF0A3
:10D320008385E4290FF08085F5290FF07D85EF29AD
:10D330000FF0E885F8290FF02B860368DB0928BF7A
:10D3400041F0800163290FF0048573290FF00985EE
:10D35000E32910F07184F32910F0768400207047DF
:10D360001FB516F084FD9DE803000FF0D1FB10F00F
:10D37000DDF904000020002115F0BCFF401C6060B6
:10D380000020002115F0A0FFE0601FBD10B510BD0A
:10D3900010F01EFF1146FFF7E3FF02F09FFC11F0B3
:10D3A000A5F903B4FFF7F2FF03BC11F0D3F90000B5
:10D3B0000138FDD170470000EFF3108072B670475E
:10D3C000EFF310807047EFF3108062B6704730BF04
:10D3D000704780F311887047EFF3118070470000A9
:10D3E00002480349034A044B7047000028290020E3
:10D3F00028690020284900202849002070B50446EB
:10D400000D462946204612F04AF84FF4A260005912
:10D4100028434FF4A261085170BD10B5F94812F0CD
:10D420009FFDF848401C12F09BFDF648801C12F04E
:10D4300097FDF448C01C12F093FDF248001D12F055
:10D440008FFDF048401D12F08BFDEE48801D12F05C
:10D4500087FDEC48C01D12F083FDEA48083012F049
:10D460007FFDE848093012F07BFDE6480A3012F0F3
:10D4700077FDE4480B3012F073FDE2480C3012F0F7
:10D480006FFDE0480D3012F06BFDDE480E3012F0FB
:10D4900067FDDC480F3012F063FDDA48103012F0FF
:10D4A0005FFDD848113012F05BFDD748D7490860BE
:10D4B000D74908600120D549091D08608020D4495A
:10D4C000091D08600221D34811F0F7FF0121D1485E
:10D4D00011F0F3FF8021CF4811F0EFFF2021CD485C
:10D4E00011F0EBFF1021CB4811F0E7FF2021CA48D3
:10D4F00011F0E3FF1021C84811F0DFFF0221C748F7
:10D5000011F0DBFF0821C64811F0D7FF0421C44801
:10D5100011F0D3FF0221C04811F0CFFF0421BE4813
:10D5200011F0CBFF0121BC4811F0B9FF0821B94827
:10D5300011F0B5FF0121BB4811F0B1FF002201211C
:10D54000B84811F0B0FE642012F040F80821B2484B
:10D5500011F0B3FF0821B44811F0AFFF0421AE4829
:10D5600011F0ABFF00BF08221146AF4811F0F9FFE0
:10D5700000BF00BF04221146A74811F0F2FF00BF10
:10D580001021AA4811F099FF2021A84811F095FF19
:10D590002021A54811F091FF00BF00222021A248C0
:10D5A00011F0DFFF00BF0821A04811F078FF022131
:10D5B0009F4811F082FF08219D4811F07EFF042151
:10D5C0009C4811F07AFF02219B4811F076FF00BFC2
:10D5D00002221146984811F0C4FF00BF4021914833
:10D5E00011F06BFF00BF402211468E4811F0B9FFC9
:10D5F00000BF0821884811F060FF0421864811F01F
:10D600005CFF40218D4811F058FF00BF40221146B9
:10D610008A4811F0A6FF00BF1021824811F04DFF8B
:10D6200000BF102211467F4811F09BFF00BF04216C
:10D630007D4811F042FF00BF042211467A4811F0E4
:10D6400090FF00BF0221774811F037FF0421754891
:10D6500011F033FF0421714811F02FFF00BF0422A5
:10D6600011466E4811F07DFF00BF08214FF04020A9
:10D6700011F023FF00BF082211464FF0402011F0A7
:10D6800070FF00BF40216A4811F017FF012169486F
:10D6900011F013FF2021664811F00FFF01216848A7
:10D6A00011F00BFF8021624811F007FF0221614851
:10D6B00011F003FF40214FF0402011F0FEFE8021C9
:10D6C0004FF0402011F0F9FE0121544811F0F5FE11
:10D6D0002021544811F0E3FE0821564811F0DFFEE6
:10D6E0001021544811F0E9FE08214C4811F0E5FEE4
:10D6F00010214A4811F0E1FE0221524811F0DDFEEE
:10D700000121504811F0D9FE20214E4811F0D5FEDC
:10D7100010214C4811F0D1FE1021484811F0BFFEF5
:10D720000121434811F0BBFE0221454811F0B7FE2C
:10D730002021424811F0B3FE04213D4811F0AFFE14
:10D7400001213D4811F0ABFE04213B4811F0A7FE3A
:10D7500080213A4811F0A3FE0821324811F09FFEC3
:10D760002021374811F0A9FE0821354811F0A5FE07
:10D770001021334811F0A1FE00BF002210213048D3
:10D7800011F0EFFE00BF04212248FFF737FE002210
:10D790000421204811F087FD132011F017FF042108
:10D7A0001C4811F072FD04212548FFF727FE0022D6
:10D7B0000421234811F077FD452011F007FF0421D3
:10D7C0001F4811F062FD10BD10B51F4812F0C8FBD4
:10D7D0001E4811F02FFE1E4811F02CFE03211248A6
:10D7E00011F095FE60234FF4E1321A4801681A489F
:10D7F00012F064FC5021184812F0A3FC164812F0F5
:10D8000094FC10BD000800F04B434F4C20550240E3
:10D81000207500400070004000400240005002406F
:10D8200000500040006006400050064000400640A6
:10D8300000100640003006400070024000600040CA
:10D840000020064000600240061800F001000D00B4
:10D8500001040D00F00100200020014010B5F9483E
:10D8600012F07EFBF84811F0E5FDF84811F0E2FDFA
:10D870000321F74811F04BFE60234FF4E132F548E5
:10D880000168F54812F01AFC5021F34812F059FCD7
:10D89000F14812F04AFC10BD10B5F04812F060FBE0
:10D8A0002021EF4811F0EDFD1021ED4811F0E9FDC8
:10D8B0000021EC4811F0F3FB00231A461946E94811
:10D8C00011F0C2FB4021E74811F08BFB0B23002233
:10D8D0001146E44811F0F2FB6A2301220021E148DD
:10D8E00011F0ECFB0021DF4811F0E1FB0021DD48E5
:10D8F00011F07EFB10BD10B5DB4812F031FB322178
:10D90000DA4812F07BFB4FF0FF32FF21D74812F0CC
:10D91000B2FBFF21D54812F0A1FB10BD10B5FF21CD
:10D92000D24812F0B1FB42F6E061B0FBF1F010BD5D
:10D9300010B5CD48401C12F013FB2221CC4812F048
:10D940005DFBC44800684FF47A71B0FBF1F42246E5
:10D95000FF21C74812F08FFB252011F037FE01216F
:10D96000C34812F084FBFF21C14812F077FB10BDC1
:10D9700010B50121BE4812F078FBBE48018800882E
:10D98000401CBC4A10800A2904D101F039FE002055
:10D99000B84908800AF03CF910BD10B5B64812F03D
:10D9A000DFFA40F20511B54811F0F8FEB44811F065
:10D9B00041FD0221B34811F08EFD00224021AF4805
:10D9C00011F0F7FEA348006842F21071B0FBF1F4C9
:10D9D00022464021A94811F00DFF4021A74811F02F
:10D9E00000FF322148436421B0FBF1F4224641217B
:10D9F000A24811F010FF01220221A04811F003FFFC
:10DA000040219E4811F0E8FE10BD70B5044694B167
:10DA100001220221994811F0F6FE4021974811F0A9
:10DA2000E0FE60436421B0FBF1F52A4641219348B2
:10DA300011F0F1FE04E000220221904811F0E3FE13
:10DA400070BD1CB5904812F08BFA40F60F0011F033
:10DA5000F1FC41F20F0011F0EDFC41F20F4011F02A
:10DA6000E9FC34214FF0402011F043FD08214FF034
:10DA7000402011F022FD0820844900230322CDE933
:10DA8000001074480168824812F0C6F8804812F00D
:10DA9000EDF800BF082211464FF0402011F061FD63
:10DAA00000BF1CBD7CB50446794812F0DAF86078F6
:10DAB00008B900250DE06078012801D1022508E0B1
:10DAC0006078022801D1012503E06078032800D1A5
:10DAD00003252078616800232A46CDE900105D48BF
:10DAE00001686B4812F098F8694812F0BFF87CBDE5
:10DAF0002DE9F04104460D464FF0000804F10C06F4
:10DB0000371F00BF306810F0020FFBD03D600DE002
:10DB10004046411C1FFA81F8B0F5FA7F06DD5DA092
:10DB200000F0FAFE4FF0FF30BDE8F081306810F0F1
:10DB3000040FEDD03868F7E710B5044604EB840114
:10DB4000C800FFF735FC10BD10B5044604E04FF4E3
:10DB50007A70FFF7F1FF641E002CF8D110BD2DE99B
:10DB6000F04188B005460F461646202168460EF063
:10DB700018FF4FF00008082E06DB4D4A4DA155A0B6
:10DB800000F0CAFE00BFFEE74FF00041354811F03B
:10DB90004EFA00BF00221146324811F02EFA00283A
:10DBA000F8D000212F4811F023FA6A4600212D48B1
:10DBB00011F063FA804600240DE0A0193DF8200022
:10DBC00025F8140035F814302246414649A000F0EB
:10DBD000A3FE601CC4B2BC42EFDB002008B0BDE86D
:10DBE000F08101464B4B1A688A4201D3501A02E079
:10DBF0008B1AC3F1FF3070474648006870470246F1
:10DC0000002000EB8100105808B10120704700206F
:10DC1000FCE70EB500200090019002903E4812F003
:10DC20009FF908210E4811F048FC04210C4811F01E
:10DC300044FC08236A46990102200AF099F812F080
:10DC40007FF90EBD031800F0010008000104080070
:10DC500000D00340F001002000F00040003800F048
:10DC60000050004000800340000400F0000003402A
:10DC70000010034000000020014000F0009002402E
:10DC80000604050000500240001C00F0801A060047
:10DC9000008000406273705F7370695F6F706572BF
:10DCA0006174652074696D656F75740D0A000000FC
:10DCB000823F02006F6666736574203C20425350B9
:10DCC0005F414443305F4348414E4E4C455F4D41B8
:10DCD0005800000028257329206861732061737340
:10DCE000657274206661696C6564206174202573B7
:10DCF0002E0A0000636E74203D205B25645D206168
:10DD00006463206368616E6E656C5B25645D3D25B0
:10DD1000640D0A00F4010020010800F070B504460B
:10DD20000D468148007884420FDA11F0B1FC0646B6
:10DD30007E48006830F8140028437C49096821F8BF
:10DD4000140011F0ACFC012070BD0320FCE770B59D
:10DD500004460D467448007884420FDA11F098FCAE
:10DD600006467248006830F81400A8436F490968F5
:10DD700021F8140011F093FC012070BD0320FCE792
:10DD80002DE9F04104460D4611F082FC07460020C3
:10DD900045F8080C206808B9256009E0266801E00C
:10DDA00056F8086C56F8080C0028F9D146F8085CBB
:10DDB00011F075FCBDE8F08170B50446002511F046
:10DDC00067FC0646206850B1256855F8080C2060AD
:10DDD000002045F8080CFF21A5F10800C18011F0D2
:10DDE0005EFC284670BD70B5054605F108000EF0D2
:10DDF0005BF904460CB9002070BD00202060A580AE
:10DE0000FF20E08004F10800F6E770B50446002525
:10DE10000CB9052070BDA4F10800C088FF2801D00E
:10DE20000420F7E7A4F1080528460EF06CF901205C
:10DE3000F0E72DE9F04105460C46164611F028FCA6
:10DE400007462868A04203D154F8080C286003E074
:10DE500054F8080C46F8080C002044F8080CFF2180
:10DE6000A4F10800C18011F01AFCBDE8F08170B582
:10DE700005460C460CB9052070BD2B48007885423C
:10DE800004DB2046FFF7C1FF0320F5E754F8080C38
:10DE900020B9A4F10800C088FF2804D02046FFF76D
:10DEA000B4FF0520E8E7A4F10800C580214620481A
:10DEB000FFF766FF4FF400412846FFF72FFF0120D0
:10DEC000DAE72DE9F04106460027002511F0E0FBD6
:10DED0008046174804680CE0A4F10800C088B042EE
:10DEE00003D10DB9254600E005E005B9274654F8F1
:10DEF000084C002CF0D100BF2CB14FF4004130464B
:10DF0000FFF70CFF04E04FF400413046FFF71FFF1E
:10DF100025B13A4629460648FFF78BFF11F0BFFBB3
:10DF20002846BDE8F0810000A8400200240000203F
:10DF300004000020FD4800687047FC480068083075
:10DF4000704710B50446FA48006830B9F94AFAA19A
:10DF5000FCA000F0E1FC00BFFEE7F54800680460AB
:10DF600010BD10B5F248006830B9FE4AF2A1F5A024
:10DF700000F0D2FC00BFFEE7ED480068006810BD6D
:10DF800010B5FFF7EEFF0446FFF7D7FF201A10BDCC
:10DF900010B5FFF7F5FF083010BD10B50446E44892
:10DFA000006830B9F04AE4A1E6A000F0B5FC00BF7B
:10DFB000FEE7DF480068446010BD10B5DC4800682B
:10DFC00030B9EA4ADCA1DFA000F0A6FC00BFFEE702
:10DFD000D7480068406810BD70B500240422D448BA
:10DFE0000168204600F014FF0446FFF7C9FF05460C
:10DFF0002A46CF4801680831204600F009FF044650
:10E000002146DBA000F088FC204670BD10B5FFF76C
:10E01000E3FF0446FFF7D1FF844201D1012010BD88
:10E020000020FCE770B50024C148006830B9D94A27
:10E03000C1A1C4A000F070FC00BFFEE7FFF7CCFF59
:10E04000BB4909684860FFF7A3FF0546FFF772FF69
:10E0500006462A46B6480168304600F0B6FC04463B
:10E06000204670BD2DE9F04707460D464FF00008E9
:10E07000002D40D038460EF075FB814628460EF044
:10E0800071FB4844841CE01C20F003042146C2A01C
:10E0900000F042FC20460EF007F8064636B9C54AA5
:10E0A000C5A1A8A000F038FC00BFFEE72B463A4609
:10E0B000C2A130460EF060F8FFF76AFF9C4909687C
:10E0C00000EB01094946BFA000F026FCFFF760FF06
:10E0D0009749096800EB01092246314648460EF08F
:10E0E000B7FB30460EF00FF8FFF73BFF00EB0409DB
:10E0F0004846FFF726FF4046BDE8F0872DE9F0418E
:10E1000007464FF0000800248948006830B9B24A39
:10E1100089A18CA000F000FC00BFFEE784480068E5
:10E1200000F10805FFF72CFF46192C4615E039468B
:10E1300020460EF0B3FA8046B8F1000F06D03846FC
:10E140000EF010FB205C3D2800D108E020460EF0C8
:10E1500009FB001D20F003000444B442E7D300BFD4
:10E16000B44202D10020BDE8F0814046FBE72DE932
:10E17000F04780460F464FF000094046FFF7BEFFCC
:10E18000044634B9954A8CA16EA000F0C5FB00BFCF
:10E19000FEE720460EF0E6FA001D20F003052246B9
:10E1A00029468FA000F0B8FBFFF7EAFE621960492C
:10E1B00009680831511A461A5EB162192346314680
:10E1C0008FA000F0A9FB6119324620460EF085FBB6
:10E1D00006E094A000F0A0FB294620460EF0BFFB0D
:10E1E000FFF7BFFEA0EB050A5046FFF7AAFE27B1D6
:10E1F00039464046FFF736FF81464846BDE8F0877E
:10E2000070B504460D46002674B12046FFF776FF30
:10E2100028B129462046FFF7AAFF064604E0294612
:10E220002046FFF71FFF0646304670BD70B500253B
:10E230003F48006830B9834A3FA142A000F06CFB20
:10E2400000BFFEE78048006830B97E4A7FA13DA04C
:10E2500000F062FB00BFFEE78048006830B9794AF1
:10E260007FA138A000F058FB00BFFEE7FFF765FE76
:10E270000646FFF766FE00240BE0734A126802EBC5
:10E28000C4025168704A126852F83400FFF7B8FFB0
:10E29000641C724800688442EFD3FFF7C3FE28462F
:10E2A00070BD2DE9FC412248006830B9714A22A1B5
:10E2B00024A000F031FB00BFFEE7FFF73BFE06465F
:10E2C000042201A900F05DFB044634B1694A6AA149
:10E2D0001CA000F021FB00BFFEE70198401C07D006
:10E2E000124800686A49096808440199884206D2C0
:10E2F00068A000F011FBFFF799FF044619E10198AF
:10E30000FFF71FFE0A48006800F10805FFF738FE16
:10E310000646FFF712FE07463246294600F031FB5B
:10E3200004460CB1534AD1E0D8E0000008000020B8
:10E3300018000020903F0200656E765F636163689D
:10E3400065000000282573292068617320617373BC
:10E35000657274206661696C656420617420257340
:10E360002E0A0000A13F0200B23F0200BE3F0200A1
:10E3700063616C63756C61746520656E7620637291
:10E380006333322076616C75653D305825303878BE
:10E390000D0A00001E40020077696C6C20617070ED
:10E3A000656E6420256420627974657320646174ED
:10E3B000610D0A0006400200656E760025733D255A
:10E3C0007300000077696C6C20617070656E64206A
:10E3D00061742025700D0A00E63F0200EF3F020045
:10E3E00077696C6C2064656C6574652025642062B7
:10E3F0007974657320646174612D3E25730D0A0084
:10E4000077696C6C206D6F76652025642062797465
:10E4100065732066726F6D20257020746F202570E3
:10E420000D0A0000746865206C617374206B657957
:10E430002077696C6C2062652064656C6574656426
:10E440000D0A00002C4002000C000020646566618B
:10E45000756C745F656E765F7365740010000020E4
:10E4600064656661756C745F656E765F73697A6505
:10E4700000000000D83F0200726573756C74203D87
:10E480003D20454E565F4E4F5F4552520000000002
:10E49000140000206E6F2076616C696420646174E2
:10E4A0006120686173206265656E207361766564C2
:10E4B0002C2077696C6C20736574206465666175C7
:10E4C0006C7420656E760D0A00000000AFF25801F2
:10E4D000AFF2901000F020FA00BFFEE7FFF750FD0A
:10E4E000064631468AA000F017FAFFF723FD061D05
:10E4F00004226946304600F044FA044644B18C4A8E
:10E50000AFF28C01AFF2C41000F006FA00BFFEE7D4
:10E510000098FFF742FDFFF779FD38B985A0009913
:10E5200000F0FAF9FFF782FE044602E08FA000F047
:10E53000F3F92046BDE8FC8138B500249148924BA0
:10E54000924A93490090934800F0D6F991480068A8
:10E5500038B9914A91A1AFF2142000F0DDF900BF63
:10E56000FEE78B48006838B98B4A90A1AFF22C20A7
:10E5700000F0D2F900BFFEE78548007810F0030FE5
:10E5800007D0854A8DA1AFF2442000F0C5F900BF45
:10E59000FEE77E48006838B97F4A8EA1AFF25C2062
:10E5A00000F0BAF900BFFEE77748006840B97A4A40
:10E5B000AFF26811AFF2742000F0AEF900BFFEE7D1
:10E5C0007048006840B9744AAFF26C11AFF28C2009
:10E5D00000F0A2F900BFFEE76A4800686C490968CC
:10E5E000884207D36C4A7FA1AFF2A82000F094F9CB
:10E5F00000BFFEE7664802686648016882A000F036
:10E600008BF9634908680DF04FFD8C490860084696
:10E61000006840B9604AAFF2E021AFF2D82000F0C4
:10E620007BF900BFFEE78548016885A000F074F91A
:10E63000FFF737FE0446204638BD70B50546002476
:10E640007E48006840B9844AAFF21431AFF20C3012
:10E6500000F062F900BFFEE755B12846FFF74EFD16
:10E6600004462CB128460EF07DF8401C204470BDB5
:10E670002046FCE770B57148006840B9774AAFF2B0
:10E680004831AFF2403000F047F900BFFEE76B4879
:10E69000006800F10805FFF773FC46192C460AE0F4
:10E6A00021466FA000F038F920460EF05BF8001DFF
:10E6B00020F003000444B442F2D370BD10B55F48AB
:10E6C000006840B9684AAFF29031AFF2883000F08C
:10E6D00023F900BFFEE765A000F01EF96FA000F06F
:10E6E0001BF9FFF727FC0446214671A000F014F93E
:10E6F00052480068416877A000F00EF97AA000F057
:10E700000BF9FFF7B7FF59A000F006F910BD0000A4
:10E71000656E762073797374656D206C6F6164200B
:10E72000256420627974657320646174610D0A0048
:10E73000D83F0200656E76206372635B30582530E7
:10E7400038785D20636865636B206661696C206161
:10E750006E642077696C6C207365742064656661F3
:10E76000756C7420656E760D0A000000656E76206B
:10E7700063726320636865636B20706173730D0A55
:10E7800000000000100000200C0000201C000020F1
:10E790001400002008000020CA3F0200656E765F6A
:10E7A00073746172745F616464720000656E765F99
:10E7B000746F74616C5F73697A650000656E765F73
:10E7C000746F74616C5F73697A6520252034203D15
:10E7D0003D20300065726173655F6D696E5F7369BE
:10E7E0007A65000064656661756C745F656E765F5E
:10E7F00073697A65203C20656E765F746F74616C16
:10E800005F73697A65000000456E762073746172EB
:10E81000742061742030582530387820616E64206F
:10E82000636F6E7461696E20746F74616C2025640F
:10E830002062797465730D0A000000001800002042
:10E84000656E765F6361636865206C6F63617420D9
:10E8500061742025700D0A00114002004140020041
:10E8600025730D0A00000000584002000D0A2A2AF4
:10E870002A2A2A2A2A2A2A2A2A2A2A2A2A2A2A2AF8
:10E880002A2A2A2A2A2A2A2A2A2A2A2A2A2A2A2AE8
:10E890002A2A2A2A2A2A2A0D0A00000048656164C9
:10E8A00065722053656374696F6E3A0D0A0000004B
:10E8B000456E762073797374656D2073746172741C
:10E8C00020616464726573732D3E3058253038784A
:10E8D0000D0A0000456E76204352432D3E305825E8
:10E8E0003038780D0A00000044617461205365637C
:10E8F00074696F6E3A0D0A0030B5039C474D056090
:10E90000ED140D60AD001560454D1D6002252560BC
:10E9100030BD0246002070470FB430B5ADF5017D23
:10E920004FF4007168460EF03CF8002485A88090F2
:10E930006846809A84990DF00DFC0020809068460E
:10E940000DF010FF054615E036480078012808D183
:10E9500000BF1DF80410344811F0A3FB0028F8D0C4
:10E9600007E000BF1DF80410304811F09AFB0028A2
:10E97000F8D0641CAC42E7D30DF5017D30BC5DF8E6
:10E9800014FB2DE9F04105460E4614460027042CE1
:10E9900006D2274A27A12AA0FFF7BEFF00BFFEE745
:10E9A00014F0030F06D0224A2DA125A0FFF7B4FFD3
:10E9B00000BFFEE704E028683060241F2D1D361DCF
:10E9C000002CF8D13846BDE8F0812DE9F04106462B
:10E9D0000D4614460027042C06D2254A15A118A07E
:10E9E000FFF79AFF00BFFEE714F0030F06D0204A9E
:10E9F0001BA113A0FFF790FF00BFFEE735B91C4A2B
:10EA00001CA10FA0FFF788FF00BFFEE7214630469C
:10EA1000FFF77FFF07463846BDE8F08100EC0108AC
:10EA2000684002002000002000F0004000C00040CC
:10EA30007840020073697A65203E3D203400000072
:10EA400028257329206861732061737365727420AF
:10EA50006661696C65642061742025732E0A00006C
:10EA600073697A6520252034203D3D203000000068
:10EA7000804002006275660010B500240E200DF083
:10EA800013FB6F4908600846006800B910BD0E21ED
:10EA90006B4800680DF063FF2046621CD4B207F09B
:10EAA000FDFF2046621CD4B206F0FAFD2046621C2F
:10EAB000D4B202F0B9FA2046621CD4B207F0F6FED6
:10EAC0002046621CD4B208F01FF92046621CD4B262
:10EAD00002F0D6F9204601F01DFF00BFD6E710B5C1
:10EAE000002058490860FFF7C7FF02F04DFB564968
:10EAF0005648006804F0E9FE00F028FE09F0E6F947
:10EB000009F067FF52495148006804F0EAF851489B
:10EB100007F07EFE152010F059FD482010F056FD3C
:10EB20004B2010F053FD012010BDF8B500246946BC
:10EB3000032009F046F820B19DF80010062004F0EB
:10EB4000E4FD6946042009F03CF820B19DF800106E
:10EB5000062004F0DAFD00F03BFF00BF38480068F3
:10EB600030F8140000B104E0601CC0B2044607286D
:10EB7000F4DB00BF072C23DA10F08AFD064630488C
:10EB8000006830F8145000202D49096821F814005D
:10EB900010F085FD304850F8242029462046904743
:10EBA000054610F075FD06462548006830F814004B
:10EBB00028432349096821F8140010F070FD00BFB4
:10EBC000F8BD264A116800BF244A1268521A8242D0
:10EBD000FAD3704710B500F0D5F820480068401C03
:10EBE0001E49086010BD1F2800DD704717490968DD
:10EBF000896B012282401143144A1268916300BF5D
:10EC0000F3E71F2800DD704710490968896B01226E
:10EC1000824091430D4A1268916300BFF3E70146B9
:10EC20001F2901DD0020704701208840074A126833
:10EC3000926B104201D00120F5E70020F3E70000BD
:10EC40002400002004000020680200206002002050
:10EC50006C020020A80200208C400200F401002079
:10EC600002466A4B186807E003898B4203D1837A16
:10EC7000934200D102E000680028F5D100BF704740
:10EC80002DE9F04107468846164641463846FFF7CB
:10EC9000E7FF04461CB166602046BDE8F081102005
:10ECA0000DF002FA0446B4B1A772A4F808806660B9
:10ECB00000202060E0605548006810B953480460A7
:10ECC00007E05248056800E02D6828680028FBD15D
:10ECD0002C602046E1E70020DFE708B10021018138
:10ECE00070472DE9F04104460D46164610F0D0FC61
:10ECF0008046324629462046FFF7C2FF074610F0FD
:10ED0000CEFC17B10120BDE8F0810720FBE72DE91B
:10ED1000F04106460F46154610F0BAFC80462A46DA
:10ED200039463046FFF7ACFF044604B1E56010F009
:10ED3000B6FC14B10120BDE8F0810720FBE72DE906
:10ED4000F04105460E4610F0A3FC07463146284622
:10ED5000FFF786FF044614B12046FFF7BEFF10F010
:10ED60009EFC14B10120BDE8F0810720FBE700B54F
:10ED70002648026803E01046FFF7AFFF1268002A3A
:10ED8000F9D100BD2DE9F0412048006800283BD0B2
:10ED90001E480468002635E0002510F079FC07467F
:10EDA0006068002802DC0020606002E06068401EAD
:10EDB0006060606848B9E06838B1208928B121896D
:10EDC000A07AFEF7ABFFE0686060606808B1208958
:10EDD00048B91EB90D492068086001E0206830601C
:10EDE0002546246801E02646246810F058FC45B109
:10EDF000686818B92989A87AFEF790FF28460DF0AF
:10EE000082F900BF002CC7D1BDE8F08128000020A6
:10EE100030B503460C46DB4308E014F8010B5840BC
:10EE2000C0B23B4D55F8200080EA13231000A2F138
:10EE30000102F2D1D84330BDF0B504460B46154669
:10EE40000021002204B10BB90020F0BD1FE0585C86
:10EE50007E2809DC13F801C01046571CBAB204F82A
:10EE600000C0481C81B212E0585CC3280DDC585C1D
:10EE700000F00307481C1E5C67F39F161046571CE2
:10EE8000BAB22654881C81B201E00020DDE7585C4C
:10EE900008B1A942DBDB1046D7E770B505460E4640
:10EEA0001CA0FFF739FD002405E0295D1AA0FFF73B
:10EEB00033FD601C84B2B442F7DB16A0FFF72CFDD3
:10EEC00070BD70B50346032903DA01F10C04E1B209
:10EED0005B1E4C1C04EB4404052594FBF5F5541C07
:10EEE000022606FB01442C441C4404EBA3046425C5
:10EEF00093FBF5F5641B4FF4C87593FBF5F52C44B3
:10EF0000072594FBF5F605FB1644E0B270BD000042
:10EF1000AC4002000D0A00002532782000000000FD
:10EF20002DE9F84F81468A4693460126724FDFF855
:10EF3000CC8173A0FFF7F0FC00250DE07C19E068A0
:10EF400038B1E06800900C2231467AA02368FFF7C0
:10EF5000E3FC1035701CC6B24545EFD37AA0FFF72D
:10EF6000DBFC0020BDE8F88F70B504460D46164660
:10EF7000FFF7A4FB002070BD70B506460D46144691
:10EF8000032D06D1D4E90101FFF73AF97BA0FFF781
:10EF9000C3FC002070BD2DE9F04107460C46154624
:10EFA000022C07D16868FFF748FB0646314677A078
:10EFB000FFF7B2FC0020BDE8F08170B504460D46B5
:10EFC0001646FFF72FF8002070BD2DE9F0410646E8
:10EFD0000F4600250BE074196EA120680DF034FD7A
:10EFE00020B9002211461046A36898471035BD424B
:10EFF000F1D3BDE8F0812DE9F04106463E4FDFF840
:10F00000FC80002509E07C19314620680DF01CFDCC
:10F0100010B92046BDE8F08110354545F3D30020F6
:10F02000F8E72DE9F04106460C4600272068FFF777
:10F03000E2FF054635B959A02168FFF76DFC0120B4
:10F04000BDE8F0816868B04204DA5AA0FFF764FCBA
:10F050000220F5E7224631462846AB6898473846F5
:10F06000EEE770B504460E46002526E000E0641C7D
:10F0700020782028FBD020780928F8D0207820B9E3
:10F08000002046F82500284670BD28466D1C46F82D
:10F09000204000E0641C207828B12078202802D08D
:10F0A00020780928F6D1207820B9002046F82500DC
:10F0B0002846E9E7002004F8010B102DD6DB1021CB
:10F0C00040A0FFF729FC2846DEE770B592B0044661
:10F0D00001A92046FFF7C5FF050005D141A0FFF7B4
:10F0E0001BFC012012B070BD01A92846FFF799FF53
:10F0F00006463046F6E700002C570200A00100004B
:10F100000D0A2D2D2D2D2D2D2D2D2D2D2D2D2D435C
:10F110004D44204C697374205461626C652D2D2D13
:10F120002D2D2D2D2D2D2D2D2D2D2D2D2D2D2D0D2F
:10F130000A000000253032642E252D2A732020205D
:10F140002D25730D0A0000000D0A2D2D2D2D2D2DBE
:10F150002D2D2D2D2D2D2D2D2D2D2D2D2D2D2D2DDF
:10F160002D2D2D2D2D2D2D2D2D2D2D2D2D2D2D2DCF
:10F170002D2D2D2D2D2D2D2D0D0A00000D0A656E26
:10F180007620736574206F6B0D0A00000D0A2573DD
:10F190000D0A000068656C70000000000D0A556ED5
:10F1A0006B6E6F776E20636D6420272573270D0AC1
:10F1B00000000000546F6F206D616E7920617267EE
:10F1C000760D0A002A2A20546F6F206D616E792017
:10F1D0006172677320286D61782E20256429202AAA
:10F1E0002A0D0A006E6F20636F6D6D616E64206181
:10F1F0007420616C6C0D0A00002000E0401C0F2898
:10F20000FCDB7047002000E0401C1E28FCDB704740
:10F2100010B50446D24850F8240001680120884700
:10F22000CF4850F82400416801208847FFF7E4FFE9
:10F23000CB4850F82400016800208847FFF7DCFF26
:10F24000C74850F82400416800208847FFF7D4FFE2
:10F2500010BD10B50446C24850F8240001680020D3
:10F260008847FFF7C9FFBE4850F8240041680120D5
:10F270008847FFF7C1FFBA4850F824000168012011
:10F280008847FFF7B9FF10BD70B504460D46B44876
:10F2900050F82400016828468847FFF7ADFFB048C2
:10F2A00050F82400416801208847FFF7ABFFAC48C5
:10F2B00050F82400416800208847FFF7A3FF70BD85
:10F2C00070B50446A64850F82400416801208847DC
:10F2D000FFF798FFA24951F8241088688047054637
:10F2E000FFF790FF9E4850F82400416800208847AF
:10F2F000FFF788FF284670BD2DE9F04104460F4610
:10F300000025974850F82400016801208847FFF73E
:10F3100073FF002609E06806050E2046FFF7D0FFC0
:10F3200008B145F00105701CC6B2082EF3DB394662
:10F330002046FFF7A9FFFFF75FFF894850F8240038
:10F34000016801208847FFF757FF2846BDE8F08194
:10F3500070B50446824850F82400016801208847AF
:10F36000FFF74AFF7E4850F8240041680120884793
:10F37000FFF748FFFFF746FF794951F824108868E6
:10F3800080470546FFF73EFF754850F82400416866
:10F3900000208847FFF736FF284670BD70B5054648
:10F3A0000C4600260FE014F0800F04D001212846FF
:10F3B000FFF76AFF03E000212846FFF765FF6006BC
:10F3C000040E701CC6B2082EEDDB2846FFF7C0FF06
:10F3D00030B1294663A0FFF79FFA4FF0FF3070BDB0
:10F3E0000020FCE72DE9F04104460E4617461D4675
:10F3F000052C06DB604A61A166A0FFF78DFA00BF0D
:10F40000FEE737B95C4A6BA162A0FFF785FA00BF3F
:10F41000FEE72046FFF7FCFE514850F82400007B31
:10F4200000F0FE0841462046FFF7B8FF002806DA44
:10F430002046FFF70EFF4FF0FF30BDE8F08148484F
:10F4400050F82400407B022810D1C6F30721204643
:10F45000FFF7A4FF002805DA2046FFF7FAFE4FF079
:10F46000FF30EAE706F0FF086D1C08E03C4850F862
:10F470002400407B012802D106F0FF086D1C0EE03D
:10F4800041462046FFF78AFF002805DA2046FFF7AD
:10F49000E0FE4FF0FF30D0E717F8018B6D1E002D16
:10F4A000EED12046FFF7D5FE0020C6E737B504466B
:10F4B0000D46012302AA29462046FFF793FF3EBDD1
:10F4C0002DE9FF41074614461D4634B93C4A39A18F
:10F4D00030A0FFF721FA00BFFEE735B9384A39A15D
:10F4E0002CA0FFF719FA00BFFEE7002301AA384657
:10F4F0000199FFF777FF002804DA4FF0FF3004B0DE
:10F50000BDE8F0813846FFF783FE154850F8270024
:10F51000007B40F0010631463846FFF73FFF0028E8
:10F5200005DA3846FFF795FE4FF0FF30E7E70FE0CA
:10F53000681E050005D000213846FFF7DDFE0646AF
:10F5400004E001213846FFF7D7FE064604F8016BB8
:10F55000002DEDD13846FFF77CFE0020CFE70000FC
:10F560007C0000206465766963655B25645D206EC0
:10F570006F2061636B0D0A00AC440200646576691C
:10F580006365203C204949435F4445564943455FF4
:10F590004E554D00282573292068617320617373CF
:10F5A000657274206661696C6564206174202573DE
:10F5B0002E0A000062756620213D204E554C4C00FD
:10F5C000BF440200636E74203E20300070B50446D4
:10F5D00000F035FD05460120A040284201D0012061
:10F5E00070BD0020FCE770B5044600F028FD05461C
:10F5F0000120A040284201D0012070BD0020FCE77E
:10F6000070B5002400BF99E004EB84024D4B03EB7E
:10F610008202107904EB840253F8221088470128F3
:10F620005CD104EB8400474901EB8000407B30B1A2
:10F6300004EB840001EB8000007B01283DD104EB4A
:10F640008400404901EB8000407B08B1C82505E0FB
:10F6500004EB84003B4901EB8000856804EB8400E7
:10F66000384901EB8000006937490968081AA84247
:10F6700062D9042C09D104EB8400324A02EB8000E9
:10F680004179012004F041F808E004EB84002D4AA0
:10F6900002EB80004179002004F037F8012004EBF0
:10F6A0008401284A02EB810148732748006804EB73
:10F6B000840102EB810108613EE004EB84002149F2
:10F6C00001EB8000407B012836D11F48006804EB25
:10F6D00084011C4A02EB810108612DE004EB8400E7
:10F6E000184901EB8000006917490968081A322897
:10F6F00014D9042C09D104EB8400124A02EB8000D7
:10F700000179012004F001F808E004EB84000D4ABF
:10F7100002EB80000179002003F0F7FF002004EBEA
:10F720008401084A02EB810148730748006804EB32
:10F73000840102EB81010861601CC4B2082CFFF651
:10F7400063AF70BD90000020F401002010B50024CC
:10F7500013E000206E4951F8241081F800026C4932
:10F7600051F8241081F80102694951F824004FF43E
:10F7700000710DF0F4F8601CC4B2072CE9D310BD81
:10F780002DE9F04105460E460027072D06DB614AAC
:10F7900061A166A0FFF7C0F800BFFEE75C4850F823
:10F7A000254094F80112481CC11700EBD1514912B1
:10F7B000A0EB4121CFB294F80002B84201D1BDE8DC
:10F7C000F08194F80102265484F8017200BFF6E734
:10F7D00070B505460026072D06DB5C4A4EA153A0F6
:10F7E000FFF79AF800BFFEE7494850F8254094F823
:10F7F000000294F80112884201D1002070BD94F8F3
:10F800000002265C94F80012481CC11700EBD1518D
:10F810004912A0EB412184F800123046EEE770B5A2
:10F820000446072C06DB4A4A3BA140A0FFF774F8C8
:10F8300000BFFEE7364850F8245095F8000295F8CE
:10F840000112884201D1012070BD0020FCE770B593
:10F850000546072D06DB3F4A2FA134A0FFF75CF8D1
:10F8600000BFFEE72A4850F8254094F8010294F8BA
:10F870000012884205DB94F8010294F80012401A45
:10F8800070BD94F8010200F5007094F80012401A5F
:10F89000F6E72DE9F05F05460C46924634B92E4A4C
:10F8A0002EA122A0FFF738F800BFFEE7072D06DBE8
:10F8B000294A19A11DA0FFF72FF800BFFEE7144841
:10F8C00050F8256096F800722846FFF7C0FF00F058
:10F8D000FF0BDA4501D3584600E0504600F0FF091F
:10F8E0004FF000080EE0F05D04F8010B781CC11722
:10F8F00000EBD1514912A0EB4121CFB208F1010038
:10F9000000F0FF08C845EEDB4846BDE8F09F000068
:10F9100030010020D1440200696E646578203C20EB
:10F920004445564943455F4E554D000028257329EF
:10F930002068617320617373657274206661696CFD
:10F9400065642061742025732E0A0000E3440200E0
:10F95000F444020009450200194502006275662060
:10F96000213D204E554C4C0010B50446082C06DBBA
:10F97000A84AA9A1AEA0FEF7CFFF00BFFEE7002076
:10F9800004EB8401B24A02EB8101887210BD0320AE
:10F9900008E0002100EB8002AD4B03EB8202917284
:10F9A000411CC8B20628F4DB704770B504460D460A
:10F9B000082C06DBA74A98A19DA0FEF7ADFF00BF6B
:10F9C000FEE704EB8400A24901EB8000857270BD64
:10F9D00070B5002419E1032C06DB9F48006890F8FD
:10F9E0003400022800D070BD04EB8400984901EB7C
:10F9F0008000807A20B101287ED002287DD1AFE03E
:10FA000004EB8403924D05EB8303197A04EB840322
:10FA100005EB8303586804EB840355F823209047D3
:10FA200004EB84012A4602EB8101497A88424FD1D6
:10FA300004EB840305EB8303197A04EB840305EBE1
:10FA40008303586804EB840355F82320904704EBA4
:10FA500084012A4602EB8101497A884221D104EBD4
:10FA60008400114601EB8000C06880B304EB840081
:10FA700002EB8000C16820468847032C09DB062C76
:10FA800007DA032004EB84012A4602EB8101887225
:10FA900037E0012004EB84016D4A02EB810188729A
:10FAA0002FE004EB84006A4901EB8000006938B163
:10FAB00004EB84000A4602EB800001692046884777
:10FAC000022004EB8401624A02EB8101887218E093
:10FAD00004EB84005E4901EB8000006938B104EB5F
:10FAE00084000A4602EB8000016920468847022014
:10FAF00004EB8401564A01E004E082E002EB81015C
:10FB000088727FE004EB8403514D05EB8303197A7F
:10FB100004EB840305EB8303586804EB840355F876
:10FB20002320904704EB84012A4602EB8101497AA5
:10FB3000884214D004EB8400114601EB8000006978
:10FB400030B104EB840002EB800001692046884755
:10FB5000022004EB84013E4A02EB8101887251E0ED
:10FB600004EB84033A4D05EB8303197A04EB840319
:10FB700005EB8303586804EB840355F82320904772
:10FB800004EB84012A4602EB8101497A884237D18D
:10FB900004EB840305EB8303197A04EB840305EB80
:10FBA0008303586804EB840355F82320904704EB43
:10FBB00084012A4602EB8101497A884220D104EB74
:10FBC0008400114601EB8000C068C8B104EB8400DA
:10FBD00002EB8000C16820468847032C09DB062C15
:10FBE00007DA032004EB84012A4602EB81018872C4
:10FBF00006E0012004EB8401154A02EB81018872C2
:10FC000000E000BF00BF601CC4B2082CFFF6E3AEEA
:10FC100000BFE8E62F4502006576656E74203C2043
:10FC20004E554D5F4F465F444554454354000000D8
:10FC300028257329206861732061737365727420AD
:10FC40006661696C65642061742025732E0A00006A
:10FC50004C010020434502006002002010B504461C
:10FC600037A0FEF759FE44A0FEF756FE214647A0F6
:10FC7000FEF752FE4AA24DA14FA0FEF74DFE55A041
:10FC8000FEF74AFE10BD10B5604961480FF0F4FF61
:10FC900060490860084600684FF47A71B0FBF1F4DF
:10FCA000204610F0A5F910F095F910F09AF9FDF73B
:10FCB000B4FB00F0BBF8FDF7EFFDFDF7C2FEFDF76A
:10FCC0001AFEFDF735FEFDF77FFDFDF7C7FD80212C
:10FCD0000F200FF0EBFC0FF0E2FC10BDFFF7D3FF9D
:10FCE0004D480068FFF7BAFFFEF7F9FE4B48006881
:10FCF000006B38B144F620624FF4804148480078E8
:10FD0000FEF7EFFF4FF4FA72012145480078FEF745
:10FD1000FEFF9622082143480078FEF7F8FFC8222C
:10FD2000202141480078FEF7F2FF96224FF400515F
:10FD30003B480078FEF7D5FF01E0FEF7F6FEFCE752
:10FD40000D0A2A2A2A2A2A2A2A2A2A2A2A2A2A2A50
:10FD50002A2A2A2A2A2A2A2A2A2A2A2A2A2A2A2A03
:10FD60002A2A2A2A2A2A2A2A2A2A2A2A2A2A2A2AF3
:10FD70002A2A2A2A2A0D0A002A2020202020204E62
:10FD8000414420433335380D0A0000002A2020204A
:10FD900020202076657273696F6E3A25730D0A0014
:10FDA00031313A34343A3439000000004D61722068
:10FDB00032382032303136002A20202020202043C3
:10FDC0007265617465643A202573202573200D0ADD
:10FDD000000000002A2A2A2A2A2A2A2A2A2A2A2A2B
:10FDE0002A2A2A2A2A2A2A2A2A2A2A2A2A2A2A2A73
:10FDF0002A2A2A2A2A2A2A2A2A2A2A2A2A2A2A2A63
:10FE00002A2A2A2A2A2A2A0D0A000000000E270779
:10FE1000800600F1F0010020EC01002060020020CB
:10FE200048020020B1020020C202002010B56E4836
:10FE300010F096F801200FF0FDFA40F201400FF0AB
:10FE4000F9FA03214FF040200FF061FB60234FF4DB
:10FE5000E13266480168664810F030F95021644884
:10FE600010F06FF9624810F060F910BD70B5012113
:10FE70005F4810F06AF9054629465D4810F05FF9C1
:10FE800015F0100F02D115F0400F0FD009E05848BF
:10FE900010F0FFF80446002C03DDE1B20020FFF76C
:10FEA0006FFC534810F005F90028F0D170BD70B513
:10FEB0000121504810F049F9044621464D4810F000
:10FEC0003EF914F0100F02D114F0400F0DD007E0EE
:10FED000484810F0DEF80546E9B20120FFF750FC73
:10FEE000444810F0E6F80028F2D170BD70B5012149
:10FEF000414810F02AF9054629463F4810F01FF9FD
:10FF000015F0100F02D115F0400F0FD009E03A485C
:10FF100010F0BFF80446002C03DDE1B20220FFF729
:10FF20002FFC354810F0C5F80028F0D170BD10B591
:10FF3000044600BF21462E4810F0B3F80028F9D03F
:10FF400010BD70B50020FFF782FC0546002D49D09A
:10FF500044E00020FFF73CFC0446082C10D127A009
:10FF6000FEF7DAFC26480078002808DD0021244846
:10FF70000078401EC0B2224A1070224A11542DE06F
:10FF80000D2C01D00A2C16D11D48007818B91EA0DE
:10FF9000FEF7C2FC22E000201A49194A1278885460
:10FFA0000846FFF792F8802116480CF0D8FC002094
:10FFB0001349087012E0124800787F2802DD002003
:10FFC0000F4908700E4801780078401C0C4A1070E8
:10FFD0000C4844542046FFF7AAFF00BF2800A5F1B3
:10FFE0000105B6D170BD0000001800F0F00100203E
:10FFF00000C000400020014000F000400820080040
:020000040001F9
:10000000F8010020F40300200D0A536169796E2D78
:100010003E00000010B500BF0022022160480FF032
:10002000A0FA00BF00BF042211465D480FF099FA04
:1000300000BF01215B480FF028F9002010BD70B50A
:10004000002500BF0022022155480FF08AFA00BFA8
:1000500000BF00BF0222114651480FF082FA00BFD4
:1000600000BF00241EE001214D480FF007FA08B13F
:10007000012000E0002018B90120A0402843C5B2AB
:1000800000BF0022042146480FF06BFA00BF00BFFA
:1000900000BF0422114642480FF063FA00BF00BFC0
:1000A000601CC4B2082CDEDB284670BD2DE9F0418F
:1000B000002601213B480FF0EFF807463946394842
:1000C0000FF0E0F8FDF72AFC0546374800682C1AC7
:1000D00035480560B4F5967F01D2022603E0B4F5F9
:1000E000167F00D20126082130480FF0C7F908B169
:1000F000012000E0002020B93146032003F005FB79
:1001000003E03146042003F000FBBDE8F08110B5A8
:10011000044634B1012C13D0022C20D0032C3CD146
:100120002CE000BF022211461E480FF01AFA00BF51
:1001300000BF042211461B480FF013FA00BF2DE048
:1001400000BF0022022117480FF00BFA00BF00BFCA
:100150000022042113480FF004FA00BF1EE000BF84
:10016000002202210F480FF0FCF900BF00BF04225B
:1001700011460C480FF0F5F900BF0FE000BF022256
:10018000114608480FF0EDF900BF00BF002204211E
:1001900004480FF0E6F900BF00E000BF00BF10BD4B
:1001A0000040024000600640000200200070004055
:1001B00070B504460D4601232A462146FA480068D8
:1001C00011F0E0FB70BD10B5012902D0022908D161
:1001D00003E00123F54C237004E00023F34C23706B
:1001E00000E000BF00BF10BD7CB504460D460026F0
:1001F00001944FF40073EE4A0095EE48007801999F
:100200000AF0EAFA06464FF40071E9480CF0C9FB1F
:1002100030467CBD70B50446E748844205D221468D
:10022000E6A0FEF779FBE44870BD650A6D0228463A
:10023000FAE72DE9F04705460E4691464FF0000AD1
:10024000EA48006800F5007086420AD34946E7484C
:100250000068FFF7C9FF82463046FFF7DBFFE3493E
:100260000860E2480068301AD1494718002409E0C4
:1002700005F10C00005D38707F1CDD48874200D11D
:1002800003E0641C2878A042F2D800BF2878A0427E
:100290001BD94946D5480068FFF7A6FF8246D348D8
:1002A000006800F50070D1490860641C4FF0000838
:1002B00008E005F10C00005DBD4901F80800641C70
:1002C00008F101082878A042F3D85046BDE8F0872D
:1002D0000146302901DA00207047392903DCA1F1F9
:1002E0003000C0B2F8E7412901DA0020F4E74629DE
:1002F00003DCA1F13700C0B2EEE7612901DA00208A
:10030000EAE7662903DCA1F15700C0B2E4E7002068
:10031000E2E72DE9F04107460D4690463C46C7E12D
:10032000B44800780C2877D2DFE800F0061C243DA2
:10033000454D55777F9ACAD220783A2803D10120BB
:10034000AC4908700CE020780D2809D020780A28E4
:1003500006D0A9A0FEF7E0FA4FF0FF30BDE8F0812B
:10036000641CA3E114F8010BAE4948700220A149B6
:1003700008709BE114F8010BAA4908700878FFF790
:10038000A7FF0246A7494878FFF7A2FF42EA0010FC
:10039000A54908700020A5490870A54908700320E8
:1003A0009449087082E114F8010BA249C870042036
:1003B000904908707AE114F8010B9E498870052075
:1003C0008C49087072E114F8010B9A4948700620B4
:1003D000884908706AE114F8010B9649087008789A
:1003E000FFF776FF024693494878FFF771FF42EA2C
:1003F000001390498878FFF76BFF02468D49C87853
:10040000FFF766FF42EA001003EB002086494860D0
:1004100007207849087049E142E114F8010B864948
:10042000487008207349087040E114F8010B8249B4
:1004300008700878FFF74CFF02467F494878FFF7BD
:1004400047FF42EA0010784908720846007818B958
:100450000A206849087002E009206649087025E111
:100460007248007838B914F8010B744948700120BB
:100470006E4908701AE014F8010B7049087008788A
:10048000FFF726FF02466D494878FFF721FF42EA51
:100490000010C1B2664802780078401C644B1870A6
:1004A00061480C3081540020604908705E48007833
:1004B0005F490978884202D10A204E490870F5E068
:1004C00014F8010B5E4948700B204A490870EDE0B2
:1004D00014F8010B5A4908700878FFF7F9FE024634
:1004E00057494878FFF7F4FE42EA00104E4981F878
:1004F0000C0108460078097908444B498988C1F302
:10050000072108444849097A08444E4908700026E2
:1005100009E045480C30805D4A490978084449495A
:100520000870701C86B240480078B042F1DC454843
:10053000007880F0FF004349087008460078401CAE
:100540000870394890F80C010978884205D03E4877
:10055000FEF7E2F94FF0FF3000E73348007A20B1B0
:10056000012820D0042814D18DE03848008838496B
:1005700048802D4880880880084600680E498842D7
:1005800004D333480068B0F1704F03D931A0FEF7AF
:10059000C3F980E02E48424601682348FFF749FE30
:1005A00000286EDA67E06DE0040200202D020020D2
:1005B000000C002022020020001000805553423A17
:1005C0002041646472203C205553425F42415345B0
:1005D0005F464C4153485F414444524553532C209D
:1005E0003078253038780D0A0000000028020020FD
:1005F000000E00202C0200205553423A2053746113
:10060000727420636F6465206578706563746564D7
:1006100020627574206E6F7420666F756E642E0D87
:100620000A0000000C020020000E00200E02002034
:100630000F020020100200201402002018020020E7
:10064000160200201A020020584502002002002055
:100650001C0200205245434F52445F545950455F9D
:10066000444154415F5245434F5244206572726F7A
:10067000720D0A0005E0AFA0FEF74EF94FF0FF3013
:100680006CE608E007E0B748007BB7494870B5481A
:10069000407B087000BF00BF0020B449087005E02F
:1006A000B3A0FEF739F94FF0FF3057E600BF6D1EDB
:1006B000002D7FF435AE002050E62DE9F84F4FF0C5
:1006C00004080FE0B74800680621B0FBF1FA504675
:1006D000FCF76EFEA8F10108B8F1000F02D101206D
:1006E000BDE8F88FB048006811F090F90028E9D112
:1006F000AE4800F01BFA08B10120F1E7ACA000F011
:1007000052FB0446ADA1802005F0A3FF44B9AFA081
:10071000FEF702F9B2A1C02005F09BFF0120DFE740
:100720002146B3A0FEF7F8F8B848007809F059FF61
:10073000B7A1C02005F08DFF4FF47A70FDF704FAE1
:10074000B748B84908604FF6FF70B74908804FF4C2
:10075000801904F500494FF40040009003E0009830
:1007600000F58060009000984845F8D34FF40047AA
:1007700025462FE0B5F5007F02D34FF4007000E06E
:1007800028460646AD1B2946A8A0FEF7C5F8601B03
:1007900064214843B0FBF4FA5246AFA1C02005F0F3
:1007A00058FFA14A31468148FFF7B3FD0DB13744E8
:1007B00010E09D499B480068FFF716FD9A480188A4
:1007C0009248007809F0D7FF9048007809F043FB81
:1007D000002085E7002000F0A3FA0028CAD10120FC
:1007E0007EE710B510F0C4F9A0480078002824D0A6
:1007F00001283CD1FFF761FF78B100209B490870C8
:100800004FF4FA60FDF7A0F999A1802005F021FFCF
:100810009CA1C02005F01DFF0EE09EA0FEF77CF815
:100820004FF4FA60FDF790F99FA1802005F011FFC9
:1008300094A1C02005F00DFF19E0A0A0FEF76CF810
:1008400064220121A2480078FEF74BFAA148016812
:100850000068401C9F4A10601E2907D99EA1802075
:1008600005F0F7FEA0A1C02005F0F3FE00BF00BF19
:1008700010BD10B5A0480FF073FB5020FCF798FD99
:1008800012F03CFB9D4812F033FB9D480FF068FBD3
:100890009C480FF065FB9B48801C0FF061FB9A4859
:1008A0000EF0C8FD402199480EF04DFE95480930E4
:1008B0000FF056FBC02196480EF037FE03219548F5
:1008C0000EF033FE01229449002010F059FE9349A6
:1008D000002011F08FF8344908609149002010F091
:1008E0001FFE00220421104611F06AFF8D480068A7
:1008F0006421B0FBF1F42046FCF75AFD80228A49BE
:1009000000200FF0E5FF10BD10B50EF09FFCFFF7C3
:10091000B0FF10BD6E490870704770B505460C46B3
:1009200014F0010F04D0FFF75CFF84F0010070BDEC
:100930000020FCE75553423A5468657265207761A0
:100940007320616E206572726F722070726F6772B1
:10095000616D6D696E672074686520646174610DF6
:100960000A000000000E0020200200202C020020BF
:100970005553423A204C6F61646572207374617400
:1009800065206D616368696E6520696E20616E2007
:10099000756E6B6E6F776E2073746174652E0D0AC1
:1009A000000000003002002004020020E0100020BF
:1009B0004333393055202020484558004D444320CA
:1009C00055534220557067726164650053696D70BC
:1009D0006C6546734F70656E204641494C0D0A00A8
:1009E0006F70656E2066696C65206661696C0000D9
:1009F00053696D706C6546734F70656E20537563F7
:100A0000636573733A25640D0A000000220200201A
:100A100045726173652046696E697368656400009C
:100A200000100080280200202402002053696D700D
:100A30006C6546735265616446696C6553656374A1
:100A40006F723A7569333252656D61696E696E67AE
:100A50003A5B25645D0D0A005570646174696E67C8
:100A60002E2E2E2025642525000000002D020020BA
:100A70005553422055706772616465204661696C08
:100A800000000000506C73204379636C6520506F48
:100A90007765720075736220757067726164652096
:100AA000646F6E650D0A00005553422055706772E1
:100AB00061646520446F6E6500000000535441542A
:100AC000455F4E4F5F4445564943450D0A000000BF
:100AD00034020020080200204E6F20555342204669
:100AE0006F756E6400000000506C7320696E736552
:100AF0007274205553420000000C00F000100020DA
:100B0000002800F0010800F0051803000070004004
:100B1000002006400050004054450200C70101007B
:100B200003000100F0010020601000202DE9F041D9
:100B30000546C348056029460020FFF739FB10B180
:100B40000120BDE8F0812E46B6F8FE01A0F52A414D
:100B5000553901D00120F4E72C460322B9A104F154
:100B600036000BF01EFEA0B10522B7A104F1520021
:100B70000BF017FE68B106F5DF77B868B449086076
:100B8000F868486008682946FFF712FB70B1012039
:100B9000D7E70020AE490860B4F8130010B9206A06
:100BA000486003E0B4F81300A9494860B4F8FE01B6
:100BB000A0F52A41553901D00120C2E7B4F80B0055
:100BC000B0F5007F01D00120BBE7607BA049088120
:100BD000B4F8110048810846408960B908229DA1F7
:100BE00004F152000BF0DDFD18B920209849C861CE
:100BF0000EE00120A5E7082299A104F136000BF0D0
:100C0000D0FD18B910209249C86101E0012098E791
:100C10008F480068E18908448D4908610846C06929
:100C2000102801D1E08A00E0606A8949C86008465E
:100C30000069C9680844401E854948610846C06982
:100C4000102812D108460069C968227C01FB020005
:100C50007F4908624889C11700EB11717C4A126A0A
:100C600002EB21117A4A91610AE0E06A7849086250
:100C700008460069C968227C01FB0200744988614A
:100C800000205EE72DE9F04705467148406870494D
:100C90000989B0FBF1F9022D01D34D4502D900209D
:100CA000BDE8F0876A48C069102801D1000100E062
:100CB00080208046B5FBF8F008FB1057B5FBF8F62E
:100CC0006A48006886420ED06149096988196849F6
:100CD000FFF76EFA28B14FF0FF306449086000203A
:100CE000DEE7624806605A48C069102808D16048AB
:100CF00030F817404FF6F870844209D30020CFE750
:100D00005B4850F827405B48844201D30020C7E786
:100D1000022C03D34C4501D82046C1E70020BFE791
:100D200070B504462CB15448046000205349086053
:100D300070BD5148006808B90020F9E744480089AF
:100D40004E490968884210D14B480068FFF79AFF66
:100D5000494908600846006818B100204749086002
:100D600003E0002044490860E2E743480068801E31
:100D70003749098900FB01F54048006805443448BB
:100D8000806905442E4801682846FFF711FA18B11A
:100D9000002039490860CBE738480068401C3749D3
:100DA00008600120C4E72DE9F04106462848076A9B
:100DB000C069202802D13846FFF7B2FF3FE024483F
:100DC000C069102808D11E4801683846FFF7F0F9BD
:100DD00040B10020BDE8F0810020FFF7A1FF08B975
:100DE0000020F7E71648046813E00B22314620463E
:100DF0000BF0D7FC60B9658B1548C069202802D17B
:100E0000A08A05EB00452846FFF78AFFE069E1E785
:100E100020340B48006800F500708442E5D30C488C
:100E2000C06910280BD10A48408910380849488108
:100E30000846408908B17F1C01E00020CAE7BEE7F0
:100E40004402002046415400464154333200000021
:100E5000E0140020464154333220202000000000DE
:100E60004641543136202020000000003802002086
:100E7000E0120020F8FFFF0F3C020020400200209B
:100E800056490870704710B5044694F8340000B90C
:100E900010BD0020FDF7C3FE00B1F9E794F83D0056
:100EA00005F02DFC4FF47A7210214C480078FDF7C4
:100EB00018FF00BFECE710B504214948FCF79FFE7E
:100EC00028B10022042146480EF0EDF904E0042286
:100ED000114643480EF0E7F996224FF400513F487F
:100EE0000078FDF7FEFE10BD70B506460C460025E5
:100EF00014F4004F1CD03046FCF7E3FF054612E027
:100F00002878012806D1AA7801213648006808F01F
:100F1000C8FC00E000BF00BF2846FCF776FF304663
:100F2000FCF7CFFF0546002DEAD184F4004070BDE8
:100F300014F0100F06D02B480068FFF7A4FF84F0D0
:100F40001000F4E714F4805F06D02648006800F033
:100F5000BAFB84F48050EAE714F0010F04D0FEF7E6
:100F6000F0FF84F00100E2E714F4804F08D0002283
:100F700011461C48006808F094FC84F48040D6E7D1
:100F800014F4005F04D0FFF796FF84F40050CEE71E
:100F90000020CCE770B504460D4600260320FCF780
:100FA00022FF114908600846006818B90FA0FDF734
:100FB000B3FC70BD0C48006804700B480068857075
:100FC0000948016805480078FCF751FF0646012EE4
:100FD00002D00EA0FDF7A0FC00BFEAE74802002007
:100FE00000200640600200204C0200206E6F206D41
:100FF000656D6F727920666F7220736F66742074EE
:1010000061736B206D73670D0A00000073656E6479
:1010100020736F6674207461736B206D7367206634
:1010200061696C0D0A000000FB49087070472DE9EA
:10103000F04104460F460025012F24D1F7480068EF
:10104000E630F64B1B68C21A2846E16AFDF7E0FE5F
:1010500005462946F2A0FDF75FFC6562EF4800688F
:10106000E630EE490968431AB9020220E26A06F046
:1010700053FE0646002E06DCEF4AF0A1F2A0FDF773
:101080004BFC00BFFEE70025F74800682830F64912
:101090000968401AA0F1080221462846FDF7B8FE6B
:1010A00005462946F1A0FDF737FC2562EE480068A9
:1010B0002830ED490968431A22460021022006F033
:1010C0002BFE0646002E06DCDB4ADCA1DEA0FDF787
:1010D00023FC00BFFEE7BDE8F0812DE9F0410446A6
:1010E0000E46AEB90020607007202070BBEE040AE7
:1010F00084ED010A0120207260720020A07201209C
:10110000E07200202073A061E0616061206116E060
:10111000012E14D1E56A4FF4887128460BF041FC8A
:10112000002028706870002706E00621281D00EBCB
:1011300007100170781CC7B2022FF6DB00BF3146E2
:101140002046FFF774FFBDE8F08170B50446E66AFB
:10115000072020700020A06384F83C002063FDF786
:1011600042FD607884F84800002084F8460000259D
:1011700007E0062106F1F00000EB05100170681C85
:10118000C5B2022DF5DB70BD70B500254C200AF00C
:101190008BFF044634B9BB4ABBA1ABA0FDF7BCFB37
:1011A00000BFFEE74C2120460BF0D9FBAE4800689B
:1011B0002830AD4A1268811AB6A0FDF7ADFB0EF0DB
:1011C00067FAA94800682830A7490968431A2246E7
:1011D0000021022006F0CCFD06460EF060FA002E3B
:1011E00006DCA84A95A198A0FDF796FB00BFFEE794
:1011F0009D48006828309C490968401AA0F10802FF
:1012000021462846FDF704FE05469748046000681D
:10121000006AA8420CD0944800682946026AA9A036
:10122000FDF77AFB002190480068FFF756FF03E0C6
:101230002946B0A0FDF770FB4FF488700AF034FF28
:10124000044634B98F4A90A17FA0FDF765FB00BF2B
:10125000FEE74FF4887120460BF081FB6F48006871
:10126000E6306E4A1268811AABA0FDF755FB0EF00E
:101270000FFA6A480068E63068490968431A22464E
:101280004FF48061022006F073FD06460EF007FA67
:10129000002E06DC7B4A69A16BA0FDF73DFB00BF79
:1012A000FEE700255D480068E6305C490968421A9F
:1012B00021462846FDF7ACFD054658480460006805
:1012C00069490968C86268480068406AA8420CD049
:1012D000654800682946426A9BA0FDF71DFB012175
:1012E00061480068FFF7F9FE02E0A3A0FDF714FBD8
:1012F0005D480068FFF729FF70BD10B500BF0222EE
:101300001146A4480EF02DF900BF00BF0822114677
:10131000A0480EF026F900BF00BF042211469E48E7
:101320000EF01FF900BF0121032006F010FE00BFE0
:101330000822114699480EF014F900BF00BF202280
:10134000114696480EF00DF900BF4FF4FA70FCF705
:10135000FBFB00BF0022102190480EF002F900BFF5
:10136000C820FCF7F1FB00BF102211468B480EF09D
:10137000F8F800BF10BD10B589A0FDF7CDFA002127
:10138000072006F0E4FD0021062006F0E0FD6420C1
:10139000FCF7DAFB00BF0022022184480EF0E1F8DE
:1013A00000BF00BF0022402181480EF0DAF800BFE4
:1013B0000021012006F0CBFD0021022006F0C7FD30
:1013C0004FF4FA70FCF7C0FB00BF00220221714805
:1013D0000EF0C7F800BF0021032006F0B8FD00BFE3
:1013E000002208216B480EF0BCF800BF00BF0022AD
:1013F000042169480EF0B5F800BF00BF00220821A3
:1014000066480EF0AEF800BF00BF002220216348FE
:101410000EF0A7F800BF10BD5C0200209003002072
:1014200077696C6C2073617665206D6463206372EC
:10143000633D25780D0A0000D4450200726574767C
:10144000616C203E203000002825732920686173DC
:1014500020617373657274206661696C65642061D4
:10146000742025732E0A00006002002077696C6CDE
:10147000207361766520737973206372633D2578EC
:101480000D0A0000E64502007020213D204E554C1B
:101490004C00000077696C6C206C6F6164202564DF
:1014A00020627974657320737973206E762064618D
:1014B00074612066726F6D20657070726F6D0D0AB9
:1014C0000000000077696C6C207365742073797379
:1014D000206E7620746F2064656661756C7420637D
:1014E00072633D25782C207379735F6372633D25A9
:1014F000780D0A00737973206E7620646174612020
:101500006C6F61642073756363756573732C2063FE
:1015100072633D25780D0A0077696C6C206C6F61F1
:1015200064202564206279746573206D6463206E85
:101530007620646174612066726F6D2065707072D0
:101540006F6D0D0A0000000077696C6C2073657484
:10155000206D6463206E7620746F2064656661750B
:101560006C74206372633D25782C206D64635F6327
:1015700072633D25780D0A006D6463206E762064E9
:10158000617461206C6F616420737563637565734A
:10159000730D0A000010064000300640002006408F
:1015A000706F776572206F66660D0A0000700240EA
:1015B0000060064070B50646F56A00247FE005F13C
:1015C000F00000EB04100078062874D2DFE800F089
:1015D000230E5E03273C204609F0F1FE4FF47A60AB
:1015E000FCF7B2FA204609F030FF65E00121204601
:1015F00007F079F94FF4FA70FCF7A6FA05F1E70065
:10160000015D204608F0FCFD64220221FB480078C1
:10161000FDF767FB50E0204608F0CAFA4CE005F100
:10162000E700015D204609F077FA4FF4FA70FCF705
:101630008BFA0121204607F056F964220221EF4877
:101640000078FDF74EFB37E00121204607F04BF90B
:101650004FF4FA70FCF778FA20460AF034F94FF4A8
:10166000FA70FCF771FA05F1F00000EB0410011DAF
:1016700020460AF047F94FF4FA70FCF765FA642245
:101680000221DE480078FDF72CFB15E00121204601
:1016900007F029F94FF4FA70FCF756FA204609F0E2
:1016A00041FD05F1F00000EB0410011D204609F09A
:1016B0006BFD01E0FFE700BF00BF601CC4B2022C5D
:1016C000FFF67DAF70BD70B50546CD480468E87A79
:1016D00068B195F83400022809D10121C948FCF706
:1016E0008EFA012801D0012000E0002000B170BD79
:1016F00029E020786978884224D1C3A160680AF083
:10170000CDFFF8B9607801280ED00220FDF787FAE6
:10171000B8B9C04A4FF40061BF480078FDF7E1FA5C
:101720000220FDF760FA0CE00220FDF778FA40B1E4
:101730004FF40061B8480078FDF701FB0220FDF787
:1017400060FA02E0A468002CD3D100BF00BFCEE74E
:1017500010B50446206906F027F810BD10B5044600
:10176000606906F03CF810BD10B5044605F07EFC3B
:1017700005F008FC2046FFF7F1FF2046FFF7E8FFE1
:1017800010BD10B50446207A022804D1012104209E
:1017900006F0DDFB03E00021042006F0D8FB607AB0
:1017A00020B90121052006F0D2FB03E0002105202D
:1017B00006F0CDFB10BD10B59848006890F83400D5
:1017C000012800D010BD20219548FCF718FA012807
:1017D00000D100E0002080B10021072006F0B7FB17
:1017E0000021062006F0B3FB0021022006F0AFFB2B
:1017F0000121084606F0ABFB39E00021012006F08C
:10180000A6FB00BF0222114686480DF0AAFE00BFCB
:1018100000BF4022114684480DF0A3FE00BF4FF4E4
:10182000FA70FCF791F97D480068007B012804D12B
:101830000121072006F08BFB15E078480068007B4B
:10184000022804D10121062006F081FB0BE0734839
:101850000068007B38B90121072006F078FB0121E0
:10186000062006F074FB0121022006F070FB032025
:10187000FEF74DFC6DA0FDF74FF80220674909689F
:1018800081F83400012004F08CFD0021084604F0AA
:101890004EFD4FF4FA724FF480516A480078FDF71C
:1018A00036FA00BF8EE710B504215648FCF7A7F9B9
:1018B000012801D0012000E0002020B108210120F2
:1018C00004F035FD1AE004215648FCF798F9012888
:1018D00000D100E0002020B10A21012004F027FD02
:1018E0000CE080214E48FCF78AF9012800D100E085
:1018F000002018B10921012004F019FD10BD30B5F8
:101900002DED028B81B0044694ED010A10EE101A01
:10191000084612F03BFA41EC100BB0EE408AF0EEB4
:10192000608A9FED490B53EC102B51EC180B11F012
:101930003DFF03D094F84600012801D1FF250CE0BB
:1019400094ED010AF0EE000A20EE200ABDEEC00A76
:1019500010EE100AC0F14000C5B294ED010A10EE7D
:10196000101A084612F012FA41EC100BB0EE408A41
:10197000F0EE608A53EC182B35A00095FCF7CCFFF5
:10198000A069002809DA217EA5EB4101C8B205F063
:101990004BFF284605F050FF08E0217FA5EB4101F1
:1019A000C8B205F049FF284605F03EFF01B0BDEC86
:1019B000028B30BD70B504211248FCF720F90128D4
:1019C00001D0012400E0002404211648FCF717F997
:1019D000012800D100E00020044380211048FCF7DA
:1019E0000EF9012800D100E00020044367D08021D7
:1019F0000B48FCF704F901283CD13CE0B802002078
:101A00006802002000100640436F6D7075746572A7
:101A100000000000804F12005C02002060020020E5
:101A2000006000400070024000600640706F776503
:101A30007220636865636B20706173732E2E2E0DA8
:101A40000A0000004802002000000000008051C091
:101A50007379735F6D61737465725F766F6C5F73BA
:101A600065743A5B252E31665D205B2532785D0D0D
:101A70000A000000002004460421F748FCF7BFF8E4
:101A8000012800D100E0002005460421F348FCF7BE
:101A9000B6F8012801D0012000E0002006462346C8
:101AA0002A463146EEA0FCF737FF4FF4FA720421C4
:101AB000F6480078FDF715F9FFF7F5FE1FE0F4484A
:101AC000006890ED010AFBEE040AB4EEE00AF1EEC4
:101AD00010FA05DDBBEE040AED48006880ED010A4E
:101AE000EB480068FFF70BFFE9480068FFF749FE85
:101AF00041F270720821E5480078FDF7F2F870BDF8
:101B00000146E44A106801E0417080680028FBD17A
:101B100070472DE9F04105460F462C6800203860DB
:101B20000CB9BDE8F08100E0A468A0680028FBD1F2
:101B30002968C86012E02646E06808B1E46801E060
:101B40000020286070680AF0DEFA002070603046DD
:101B50000AF0D9FA00260CB10020A06028680028FD
:101B6000E9D100BFDDE710B504460120FEF7CFFA4A
:101B7000FFF701FC0021022006F0B5FE00BF0022A5
:101B80000221C5480DF0EDFC00BFC449C448FFF771
:101B9000C0FFC249091DC248001DFFF7BAFF00205F
:101BA000FFF7AEFF0220FDF72CF8002084F8340088
:101BB00010BD10B52DED028B0446BAA005F0B1F8AA
:101BC00094F8460008B9BCA000E0BCA00146BCA047
:101BD00005F0A7F894F8340008B9B7A000E0B7A062
:101BE0000146BBA005F09DF86178BDA005F099F80D
:101BF0002178C0A005F095F8C3480168C3A005F09E
:101C000090F894ED010A10EE101A084612F0BEF892
:101C100041EC100BB0EE408AF0EE608A53EC182BCA
:101C2000BFA005F07EF8E07A012801D1A3A000E072
:101C3000A1A00146BFA005F074F8A17AC3A005F0E9
:101C400070F8A069002804DAC6A0A16905F069F857
:101C500003E0C9A0E16905F064F8CCA0616905F072
:101C600060F8CEA0216905F05CF8207B012801DC3A
:101C700092A000E090A00146CDA005F052F8207B94
:101C8000022801D0207B08B98CA000E08AA0014680
:101C9000CCA005F046F8BDEC028B10BD70B5064631
:101CA000F46A3178CCA0FCF737FE002591E004F10E
:101CB000F00000EB05100078062871D0717804F16F
:101CC000E700405D81426BDB04F1E700415D0930D4
:101CD00000EB0510407808447178884277DD04F104
:101CE000F00000EB0510007806286BD2DFE800F06A
:101CF000210D5903333E727804F1E700405D101A5C
:101D0000C1B2284609F0DDFB5DE0737804F1E7001D
:101D1000405D181AC1B204F1E700425D284608F0A0
:101D2000DFFA717804F1E700405D081A60702570F1
:101D300049E0727804F1E700405D111AAFA0FCF7AA
:101D4000EBFD727804F1E700405D101AC1B228463D
:101D500007F058FF37E0284607F02AF9717804F1B8
:101D6000E700405D081A607025702CE0727804F17D
:101D7000E700405D101AC1B2A7A0FCF7CDFD727854
:101D800004F1E700405D101AC1B2284609F07DFE5B
:101D9000717804F1E700405D081A6070257012E068
:101DA00015E0727804F1E700405D101AC1B22846D0
:101DB00009F01DFA717804F1E700405D081A6070BF
:101DC000257000E000BF00BF284607F0D8F8681C67
:101DD000C5B2022DFFF66BAF70BD2DE9F04105468F
:101DE0002C4804680CE028460AF0BCFC07463A463A
:101DF000294660680AF0D5FC08B9667802E0A46854
:101E0000002CF0D100BF3046BDE8F08110B504468B
:101E10006078072819D2DFE800F0040E1D1C1B1A99
:101E20001900022005F052FB022005F00BFA0320F6
:101E300005F0A8FC38E1032005F048FB032005F07D
:101E400001FA032005F09EFC2EE12CE10CE119E1E2
:101E500011E1FFE0F4E000000070024000100640D5
:101E6000696E207379735F68775F706F7765725FF3
:101E7000636865636B2C2041433D25642C44433DDE
:101E800025642C204F543D25640D0A005C0200207F
:101E9000600200206802002000500240780200200A
:101EA000700200200D4D61696E2E4D6F64656C3DB2
:101EB000433335380D0000004F6666004F6E00005A
:101EC0000D4D61696E2E4D7574653D25730D0000D5
:101ED0000D4D61696E2E506F7765723D25730D0053
:101EE0000D4D61696E2E536F757263653D25640DEE
:101EF000000000000D4D61696E2E536F75726365B1
:101F0000733D25640D000000EC0100200D4D61695A
:101F10006E2E56657273696F6E3D25730D0000005D
:101F20000D4D61696E2E566F6C756D653D252E31B8
:101F3000660D00000D4D61696E2E4175746F53740E
:101F4000616E6462793D25730D0000000D4D61697D
:101F50006E2E49522E4368616E6E656C3D25640D90
:101F6000000000000D4D61696E2E42616C616E6370
:101F7000653D25644C0D00000D4D61696E2E42617A
:101F80006C616E63653D2564520D00000D4D616905
:101F90006E2E426173733D25640D00000D4D616925
:101FA0006E2E547265626C653D25640D0000000064
:101FB0000D4D61696E2E537065616B6572413D25F3
:101FC000730D00000D4D61696E2E537065616B6578
:101FD00072423D25730D00007379735F6D64635F1A
:101FE000696E7075745F73656C6563743A207372A3
:101FF000635F6E756D3D25640D0A00006D64635F5F
:1020000064696F5F696E7075745F73656C65637426
:102010003A25640D0A0000007379735F6D64635F95
:10202000696E7075745F73656C6563743A4D444393
:102030005F48444D495F76323A25640D0A0000003E
:10204000002005F043FA002005F0FCF8032005F01D
:1020500099FB29E0012005F039FA012005F0F2F89A
:10206000032005F08FFB1FE0F6A0FCF755FC0220D3
:1020700005F088FB18E0FAA0FCF74EFC012005F003
:1020800081FB11E0052005F021FA052005F0DAF8C2
:10209000032005F077FBF9A0FFF79FFE10B90120A0
:1020A00005F049F900E000BF00BF10BD10B50446BF
:1020B000012005F040F96078072807DA6178F2A07E
:1020C000FCF72AFC2046FFF7A1FE0BE02046FFF7B5
:1020D000E5FD042005F0FAF9042005F0B3F803202B
:1020E00005F050FB607884F8480010BD10B5044638
:1020F000012084F834000220FEF709F8FDF78AFF7A
:10210000FFF7FBF84FF4FA70FBF71EFD06F08CF8B2
:10211000FDF73DFC00BF02221146E7480DF021FA11
:1021200000BF2046FFF746FA2046FFF71DFB20467A
:10213000FFF7BCFF2046FFF73CFDFFF73BFC10BD5F
:1021400010B505F081FB3220FBF7FEFC00210220D8
:1021500005F0FDFE00BF00220221D8480DF001FA73
:1021600000BF00BF00224021D5480DF0FAF900BFA2
:102170004FF4FA620421D3480078FCF7B2FD10BD99
:1021800010B5202004F051FC002004F04EFC552036
:1021900004F04BFCFF2004F048FCCBA0FCF7BCFB98
:1021A00010BD10B50446CD480068B8B1CB480068F2
:1021B000806828B1C94800688068C849086003E0A1
:1021C000C7480068C5490860C44800684268C348F9
:1021D00000680178C3A0FCF79FFB0CE0C0480068D2
:1021E000BE490860084600684268084600680178F1
:1021F000BCA0FCF791FBB948006800786070B74854
:1022000000680078062807D1B4480068C0684078A4
:10221000012801D1FFF7B4FFFFF792FF0220FCF77E
:10222000F0FC012004F0BDF80021084604F07FF81E
:102230004FF47A720221B1480078FCF752FD4FF456
:1022400096724021AD480078FCF74BFD10BD70B58B
:102250000446A3480568A148006800281AD09F4892
:102260000068C06838B9A64AA6A1AFF62460FCF79A
:1022700053FB00BFFEE799480068C06897490860B3
:10228000084600684268084600680178A1A0FCF78B
:1022900043FB0CE0924800689049086008460068DB
:1022A00042680846006801789AA0FCF735FB8B4825
:1022B000006800786070894800680078042807D1B9
:1022C0008648006880684078012801D1FFF758FFF0
:1022D000FFF736FF0220FCF794FC012004F061F8C0
:1022E0000021084604F023F84FF47A720221834853
:1022F0000078FCF7F6FC4FF4967240217F48007896
:10230000FCF7EFFC70BD03460A467548016808E01B
:102310000878904204D1714801605A7001207047DA
:1023200089680029F4D10020F9E770B504460D460C
:1023300029462046FFF7E7FF80B12046FFF7B6FEAB
:10234000012004F02EF80021084603F0F0FF4FF4BE
:102350009672402169480078FCF7C3FC70BD10B547
:1023600004467248006838B9714A72A1AFF6287005
:10237000FCF7D2FA00BFFEE76C480068806838B905
:102380006B4A71A1AFF64070FCF7C6FA00BFFEE7DA
:1023900066480068806865490860084600680078FB
:1023A000142806D12078072803D1084600688068E1
:1023B00008600021084603F0BAFF44F620624FF49B
:1023C00000714E480078FCF78CFC10BD10B5044637
:1023D0005648006838B9624A56A1AFF69470FCF7C7
:1023E0009BFA00BFFEE7514800684068C8B14F48FB
:1023F000006840684D490860084600680078142865
:1024000012D1207807280FD108460068406820B113
:10241000084600684068086006E00B2003F0C1FF32
:1024200002E00B2003F0BDFF0021084603F07FFF10
:1024300044F620624FF4007130480078FCF751FCFC
:1024400010BD00006E6A77313139345F696E707586
:10245000745F73656C6563743A4C494E450D0A00B0
:102460006E6A77313139345F696E7075745F736588
:102470006C6563743A4D4D0D0A000000426C756541
:10248000746F6F74680000007379735F696E7075A4
:10249000745F73656C6563743A73656C656374200F
:1024A000636F6E7374616E742073726F7563655BB6
:1024B00025645D0D0A0000000050024000700240DB
:1024C00000600640C20200207379735F62745F701F
:1024D0006C61795F70617573650D0A006C02002094
:1024E00068020020676574206E65787420737263DB
:1024F0002D3E25642E25730D0A0000005C0200208D
:10250000F8450200674375725372632D3E70726521
:1025100076000000676574207072657620737263C0
:102520002D3E25642E25730D0A000000AC0200200C
:102530000D4602006375725F6D656E7520213D204A
:102540004E554C4C000000006375725F6D656E75F2
:102550002D3E7072657620213D204E554C4C00007A
:1025600022460200F64951F8201061B1F44951F8B1
:102570002010C96869B1F24951F82010C968F04AC1
:1025800042F8201005E0EF4951F82010EC4A42F8DB
:102590002010704770B50446E56AEB48006800B942
:1025A00070BDE94800680078022807D12878FFF755
:1025B000D9FF0121002003F0BAFE07E0E2480068DD
:1025C00000780B2802DB2046FFF7C9FE00BFE7E7D3
:1025D00070B50446DA4850F8240000283BD0D848AB
:1025E00050F82400806838B1D54850F8240080683D
:1025F000D34941F8240034E0D4480178D448007825
:10260000401C814220DDD1480078D1490978401A28
:10261000401EC5B2082D01DD082000E02846034613
:10262000CB480278521CCBA1204607F0D2FB0521F3
:10263000012003F07CFE4FF448724FF40051CB4868
:102640000078FCF74EFB70BDBE4850F82400BC4932
:1026500041F8240005E0BB4850F82400B84941F88F
:1026600024000021084603F062FE00BFEBE770B5CE
:102670000446E56AB448006800B970BDB248006815
:102680000078022803D12878FFF7A2FF07E0AE48C0
:10269000006800780B2802DB2046FFF797FE00BF9A
:1026A000EBE770B50446E56AA748006800B970BD5D
:1026B000A5480068007802280DD12978A04B53F86E
:1026C00021100A782878AAA107F083FB05210120B0
:1026D00003F02DFE1DE09C4800680078012804D01E
:1026E000994800680078072807D10B2003F059FEAD
:1026F0000021084603F01BFE0BE0934800680078B9
:102700000B2806DB012003F04CFE0021084603F0F5
:102710000EFE00BFCBE710B5044600BF0022022129
:1027200097480CF01EFF00BF00BF002240219548D3
:102730000CF017FF00BF6420FBF706FA4FF4FA62B3
:10274000102191480078FCF7CCFA207A022804D1B5
:102750000121042005F0FBFB03E00021042005F02B
:10276000F6FB10BD10B504460021022005F0EFFB7A
:102770006420FBF7E9F94FF4FA62082182480078F7
:10278000FCF7AFFA607A20B90121052005F0DFFBE4
:1027900003E00021052005F0DAFB10BD10B504466A
:1027A000207B012808D10121072005F0D0FB002162
:1027B000062005F0CCFB21E0207B022808D1002177
:1027C000072005F0C4FB0121062005F0C0FB15E041
:1027D000207B40B90121072005F0B9FB012106202B
:1027E00005F0B5FB0AE0207B032807D10021072074
:1027F00005F0ADFB0021062005F0A9FB10BD10B5CA
:102800000446E07A40B94FF4006158480078FCF77C
:1028100096FA0220FCF7F5F910BD10B504462046E3
:10282000FFF76DF810BD70B50446E56A46480068CC
:1028300000B970BD4448006800780B2807DB44F6F7
:1028400020624FF4007149480078FCF74AFA3E488C
:1028500000680078801E132871D2DFE800F0304055
:10286000707070707070700A1D485BA3B3C3D37032
:10287000EF00207A012801D1022000E0012020721F
:102880008021002003F053FD4FF496724021374819
:102890000078FCF726FAE7E0607A012801D00120F1
:1028A00000E0002060728121002003F040FD4FF421
:1028B000967240212D480078FCF713FAD4E028786E
:1028C00032A107F086FA0521012003F030FD41F224
:1028D0008832012125480078FCF703FAC4E0022081
:1028E00003F05FFD0221002003F021FDBCE0A07A8F
:1028F00008B9032001E0A07A401EA072002108461A
:1029000003F015FD4FF49672402118480078FCF74B
:10291000E8F9A9E0E07A08B9012000E00020E072BF
:102920002046FFF76CFF4FF4967240210F48007865
:10293000FCF7D7F90021084603F0F9FC94E092E097
:102940007802002070020020AC02002088020020E3
:10295000890200204D656469612E466E526571756D
:102960006573743D25642C25640A00005C02002018
:102970004D656469612E506C61793D25640A0000E3
:102980000070024000600640C20200204D6564698C
:10299000612E416374696F6E3D417363656E64447B
:1029A00069720A00207B08B9032002E0207B401EE8
:1029B000C0B220732046FFF7F1FE0021084603F065
:1029C000B6FC51E02069C01D01D1C01F01E02069A3
:1029D000401E20612046FEF7BBFE0021084603F0A2
:1029E000A6FC41E06069C01D01D1C01F01E0606923
:1029F000401E60612046FEF7B1FE0021084603F04C
:102A000096FC31E0E069002807DAE06908B90020A7
:102A100001E0E069401CE06107E0A069C01D01D150
:102A2000C01F01E0A069401EA0612046FFF7F5FE2F
:102A30000021084603F07BFC16E0FFE7FE48007823
:102A400008B9012000E00020064605F1F00000EB87
:102A500006100078062805D0F748067000210846C1
:102A600003F065FC00E000BF00BF00BFE1E670B509
:102A70000446E56AF148006800B970BDEF48006897
:102A800000780B2807DB44F620624FF40071EC4815
:102A90000078FCF726F9E94800680078801E1328C2
:102AA0006FD2DFE800F0A4C8C8C8C8C8C8C8C80A40
:102AB0001D3044596A7A89C8B300207A012801D1AF
:102AC000022000E0012020728021002003F02FFC72
